{
  "contractName": "Election",
  "abi": [
    {
      "inputs": [],
      "stateMutability": "nonpayable",
      "type": "constructor"
    },
    {
      "anonymous": false,
      "inputs": [
        {
          "indexed": false,
          "internalType": "string",
          "name": "msg",
          "type": "string"
        }
      ],
      "name": "success",
      "type": "event"
    },
    {
      "inputs": [
        {
          "internalType": "uint256",
          "name": "",
          "type": "uint256"
        }
      ],
      "name": "candidateList",
      "outputs": [
        {
          "internalType": "string",
          "name": "name",
          "type": "string"
        },
        {
          "internalType": "uint256",
          "name": "age",
          "type": "uint256"
        },
        {
          "internalType": "string",
          "name": "party",
          "type": "string"
        },
        {
          "internalType": "uint256",
          "name": "votes",
          "type": "uint256"
        }
      ],
      "stateMutability": "view",
      "type": "function",
      "constant": true
    },
    {
      "inputs": [
        {
          "internalType": "string",
          "name": "",
          "type": "string"
        }
      ],
      "name": "candidates",
      "outputs": [
        {
          "internalType": "uint256",
          "name": "",
          "type": "uint256"
        }
      ],
      "stateMutability": "view",
      "type": "function",
      "constant": true
    },
    {
      "inputs": [],
      "name": "owner",
      "outputs": [
        {
          "internalType": "address",
          "name": "",
          "type": "address"
        }
      ],
      "stateMutability": "view",
      "type": "function",
      "constant": true
    },
    {
      "inputs": [],
      "name": "totalVote",
      "outputs": [
        {
          "internalType": "uint256",
          "name": "",
          "type": "uint256"
        }
      ],
      "stateMutability": "view",
      "type": "function",
      "constant": true
    },
    {
      "inputs": [
        {
          "internalType": "address",
          "name": "",
          "type": "address"
        }
      ],
      "name": "voterList",
      "outputs": [
        {
          "internalType": "bool",
          "name": "registered",
          "type": "bool"
        },
        {
          "internalType": "bool",
          "name": "voted",
          "type": "bool"
        }
      ],
      "stateMutability": "view",
      "type": "function",
      "constant": true
    },
    {
      "inputs": [],
      "name": "winnerName",
      "outputs": [
        {
          "internalType": "string",
          "name": "",
          "type": "string"
        }
      ],
      "stateMutability": "view",
      "type": "function",
      "constant": true
    },
    {
      "inputs": [
        {
          "internalType": "string",
          "name": "_name",
          "type": "string"
        },
        {
          "internalType": "uint256",
          "name": "_age",
          "type": "uint256"
        },
        {
          "internalType": "string",
          "name": "_party",
          "type": "string"
        }
      ],
      "name": "registerCandidates",
      "outputs": [],
      "stateMutability": "nonpayable",
      "type": "function"
    },
    {
      "inputs": [
        {
          "internalType": "address",
          "name": "_voterAddress",
          "type": "address"
        }
      ],
      "name": "whiteListAddress",
      "outputs": [],
      "stateMutability": "nonpayable",
      "type": "function"
    },
    {
      "inputs": [],
      "name": "startVoting",
      "outputs": [],
      "stateMutability": "nonpayable",
      "type": "function"
    },
    {
      "inputs": [
        {
          "internalType": "string",
          "name": "_name",
          "type": "string"
        }
      ],
      "name": "putVote",
      "outputs": [],
      "stateMutability": "nonpayable",
      "type": "function"
    },
    {
      "inputs": [],
      "name": "stopVoting",
      "outputs": [],
      "stateMutability": "nonpayable",
      "type": "function"
    },
    {
      "inputs": [],
      "name": "getAllCandidate",
      "outputs": [
        {
          "components": [
            {
              "internalType": "string",
              "name": "name",
              "type": "string"
            },
            {
              "internalType": "uint256",
              "name": "age",
              "type": "uint256"
            },
            {
              "internalType": "string",
              "name": "party",
              "type": "string"
            },
            {
              "internalType": "uint256",
              "name": "votes",
              "type": "uint256"
            }
          ],
          "internalType": "struct Election.Candidate[]",
          "name": "list",
          "type": "tuple[]"
        }
      ],
      "stateMutability": "view",
      "type": "function",
      "constant": true
    },
    {
      "inputs": [],
      "name": "votingStatus",
      "outputs": [
        {
          "internalType": "bool",
          "name": "",
          "type": "bool"
        }
      ],
      "stateMutability": "view",
      "type": "function",
      "constant": true
    },
    {
      "inputs": [],
      "name": "getWinner",
      "outputs": [
        {
          "components": [
            {
              "internalType": "string",
              "name": "name",
              "type": "string"
            },
            {
              "internalType": "uint256",
              "name": "age",
              "type": "uint256"
            },
            {
              "internalType": "string",
              "name": "party",
              "type": "string"
            },
            {
              "internalType": "uint256",
              "name": "votes",
              "type": "uint256"
            }
          ],
          "internalType": "struct Election.Candidate",
          "name": "candidate",
          "type": "tuple"
        }
      ],
      "stateMutability": "view",
      "type": "function",
      "constant": true
    }
  ],
  "bytecode": "0x608060405234801561001057600080fd5b50336000806101000a81548173ffffffffffffffffffffffffffffffffffffffff021916908373ffffffffffffffffffffffffffffffffffffffff16021790555060006002819055506000600360006101000a81548160ff02191690831515021790555061259d806100836000396000f3fe608060405234801561001057600080fd5b50600436106100ea5760003560e01c8063b13c744b1161008c578063e2ba53f011610066578063e2ba53f01461023b578063efd5297c14610259578063f1cea4c714610277578063fab2f86b14610295576100ea565b8063b13c744b146101bc578063c5539cc2146101ef578063cf52a7b21461021f576100ea565b80631f553739116100c85780631f553739146101485780638da5cb5b146101645780638e7ea5b214610182578063a53d3ca1146101a0576100ea565b806303b4caed146100ef57806319f41a40146101205780631ec6b60a1461013e575b600080fd5b61010960048036038101906101049190611340565b61029f565b604051610117929190611388565b60405180910390f35b6101286102dd565b60405161013591906113b1565b60405180910390f35b6101466102f4565b005b610162600480360381019061015d9190611512565b6103d4565b005b61016c61073b565b604051610179919061156a565b60405180910390f35b61018a61075f565b6040516101979190611687565b60405180910390f35b6101ba60048036038101906101b591906116d5565b61097e565b005b6101d660048036038101906101d19190611760565b610b90565b6040516101e694939291906117e6565b60405180910390f35b61020960048036038101906102049190611512565b610ce0565b6040516102169190611839565b60405180910390f35b61023960048036038101906102349190611340565b610d0e565b005b610243610f9b565b6040516102509190611854565b60405180910390f35b610261611029565b60405161026e91906119a2565b60405180910390f35b61027f6111c0565b60405161028c9190611839565b60405180910390f35b61029d6111c6565b005b60066020528060005260406000206000915090508060000160009054906101000a900460ff16908060000160019054906101000a900460ff16905082565b6000600360009054906101000a900460ff16905090565b60008054906101000a900473ffffffffffffffffffffffffffffffffffffffff1673ffffffffffffffffffffffffffffffffffffffff163373ffffffffffffffffffffffffffffffffffffffff1614610382576040517f08c379a000000000000000000000000000000000000000000000000000000000815260040161037990611a10565b60405180910390fd5b6001600360006101000a81548160ff0219169083151502179055507f68f068b2f0d02fca99bc8285b62fce8668fe16b7c6a810351ea25bff358c0dd86040516103ca90611a7c565b60405180910390a1565b60011515600360009054906101000a900460ff1615151461042a576040517f08c379a000000000000000000000000000000000000000000000000000000000815260040161042190611b0e565b60405180910390fd5b60008054906101000a900473ffffffffffffffffffffffffffffffffffffffff1673ffffffffffffffffffffffffffffffffffffffff163373ffffffffffffffffffffffffffffffffffffffff16036104b8576040517f08c379a00000000000000000000000000000000000000000000000000000000081526004016104af90611b7a565b60405180910390fd5b60011515600660003373ffffffffffffffffffffffffffffffffffffffff1673ffffffffffffffffffffffffffffffffffffffff16815260200190815260200160002060000160009054906101000a900460ff1615151461054e576040517f08c379a000000000000000000000000000000000000000000000000000000000815260040161054590611be6565b60405180910390fd5b60001515600660003373ffffffffffffffffffffffffffffffffffffffff1673ffffffffffffffffffffffffffffffffffffffff16815260200190815260200160002060000160019054906101000a900460ff161515146105e4576040517f08c379a00000000000000000000000000000000000000000000000000000000081526004016105db90611c52565b60405180910390fd5b60056004826040516105f69190611cae565b9081526020016040518091039020548154811061061657610615611cc5565b5b9060005260206000209060040201600301600081548092919061063890611d23565b91905055506001600660003373ffffffffffffffffffffffffffffffffffffffff1673ffffffffffffffffffffffffffffffffffffffff16815260200190815260200160002060000160016101000a81548160ff021916908315150217905550600060056004836040516106ac9190611cae565b908152602001604051809103902054815481106106cc576106cb611cc5565b5b9060005260206000209060040201600301549050806002541015610702578060028190555081600190816107009190611f77565b505b7f68f068b2f0d02fca99bc8285b62fce8668fe16b7c6a810351ea25bff358c0dd860405161072f90612095565b60405180910390a15050565b60008054906101000a900473ffffffffffffffffffffffffffffffffffffffff1681565b6107676112a6565b60008054906101000a900473ffffffffffffffffffffffffffffffffffffffff1673ffffffffffffffffffffffffffffffffffffffff163373ffffffffffffffffffffffffffffffffffffffff16146107f5576040517f08c379a00000000000000000000000000000000000000000000000000000000081526004016107ec90612101565b60405180910390fd5b60056004600160405161080891906121a4565b9081526020016040518091039020548154811061082857610827611cc5565b5b906000526020600020906004020160405180608001604052908160008201805461085190611d9a565b80601f016020809104026020016040519081016040528092919081815260200182805461087d90611d9a565b80156108ca5780601f1061089f576101008083540402835291602001916108ca565b820191906000526020600020905b8154815290600101906020018083116108ad57829003601f168201915b50505050508152602001600182015481526020016002820180546108ed90611d9a565b80601f016020809104026020016040519081016040528092919081815260200182805461091990611d9a565b80156109665780601f1061093b57610100808354040283529160200191610966565b820191906000526020600020905b81548152906001019060200180831161094957829003601f168201915b50505050508152602001600382015481525050905090565b60008054906101000a900473ffffffffffffffffffffffffffffffffffffffff1673ffffffffffffffffffffffffffffffffffffffff163373ffffffffffffffffffffffffffffffffffffffff1614610a0c576040517f08c379a0000000000000000000000000000000000000000000000000000000008152600401610a039061222d565b60405180910390fd5b6000600484604051610a1e9190611cae565b90815260200160405180910390205414610a6d576040517f08c379a0000000000000000000000000000000000000000000000000000000008152600401610a6490612299565b60405180910390fd5b6000604051806080016040528085815260200184815260200183815260200160008152509050600060058054905003610abf576005600181600181540180825580915050039060005260206000209050505b600580549050600485604051610ad59190611cae565b90815260200160405180910390208190555060058190806001815401808255809150506001900390600052602060002090600402016000909190919091506000820151816000019081610b289190611f77565b50602082015181600101556040820151816002019081610b489190611f77565b506060820151816003015550507f68f068b2f0d02fca99bc8285b62fce8668fe16b7c6a810351ea25bff358c0dd8604051610b8290612305565b60405180910390a150505050565b60058181548110610ba057600080fd5b9060005260206000209060040201600091509050806000018054610bc390611d9a565b80601f0160208091040260200160405190810160405280929190818152602001828054610bef90611d9a565b8015610c3c5780601f10610c1157610100808354040283529160200191610c3c565b820191906000526020600020905b815481529060010190602001808311610c1f57829003601f168201915b505050505090806001015490806002018054610c5790611d9a565b80601f0160208091040260200160405190810160405280929190818152602001828054610c8390611d9a565b8015610cd05780601f10610ca557610100808354040283529160200191610cd0565b820191906000526020600020905b815481529060010190602001808311610cb357829003601f168201915b5050505050908060030154905084565b6004818051602081018201805184825260208301602085012081835280955050505050506000915090505481565b60008054906101000a900473ffffffffffffffffffffffffffffffffffffffff1673ffffffffffffffffffffffffffffffffffffffff168173ffffffffffffffffffffffffffffffffffffffff1603610d9c576040517f08c379a0000000000000000000000000000000000000000000000000000000008152600401610d9390611b7a565b60405180910390fd5b60008054906101000a900473ffffffffffffffffffffffffffffffffffffffff1673ffffffffffffffffffffffffffffffffffffffff163373ffffffffffffffffffffffffffffffffffffffff1614610e2a576040517f08c379a0000000000000000000000000000000000000000000000000000000008152600401610e2190612397565b60405180910390fd5b60001515600660008373ffffffffffffffffffffffffffffffffffffffff1673ffffffffffffffffffffffffffffffffffffffff16815260200190815260200160002060000160009054906101000a900460ff16151514610ec0576040517f08c379a0000000000000000000000000000000000000000000000000000000008152600401610eb790612403565b60405180910390fd5b6000604051806040016040528060011515815260200160001515815250905080600660008473ffffffffffffffffffffffffffffffffffffffff1673ffffffffffffffffffffffffffffffffffffffff16815260200190815260200160002060008201518160000160006101000a81548160ff02191690831515021790555060208201518160000160016101000a81548160ff0219169083151502179055509050507f68f068b2f0d02fca99bc8285b62fce8668fe16b7c6a810351ea25bff358c0dd8604051610f8f9061246f565b60405180910390a15050565b60018054610fa890611d9a565b80601f0160208091040260200160405190810160405280929190818152602001828054610fd490611d9a565b80156110215780601f10610ff657610100808354040283529160200191611021565b820191906000526020600020905b81548152906001019060200180831161100457829003601f168201915b505050505081565b60606005805480602002602001604051908101604052809291908181526020016000905b828210156111b7578382906000526020600020906004020160405180608001604052908160008201805461108090611d9a565b80601f01602080910402602001604051908101604052809291908181526020018280546110ac90611d9a565b80156110f95780601f106110ce576101008083540402835291602001916110f9565b820191906000526020600020905b8154815290600101906020018083116110dc57829003601f168201915b505050505081526020016001820154815260200160028201805461111c90611d9a565b80601f016020809104026020016040519081016040528092919081815260200182805461114890611d9a565b80156111955780601f1061116a57610100808354040283529160200191611195565b820191906000526020600020905b81548152906001019060200180831161117857829003601f168201915b505050505081526020016003820154815250508152602001906001019061104d565b50505050905090565b60025481565b60008054906101000a900473ffffffffffffffffffffffffffffffffffffffff1673ffffffffffffffffffffffffffffffffffffffff163373ffffffffffffffffffffffffffffffffffffffff1614611254576040517f08c379a000000000000000000000000000000000000000000000000000000000815260040161124b906124db565b60405180910390fd5b6000600360006101000a81548160ff0219169083151502179055507f68f068b2f0d02fca99bc8285b62fce8668fe16b7c6a810351ea25bff358c0dd860405161129c90612547565b60405180910390a1565b6040518060800160405280606081526020016000815260200160608152602001600081525090565b6000604051905090565b600080fd5b600080fd5b600073ffffffffffffffffffffffffffffffffffffffff82169050919050565b600061130d826112e2565b9050919050565b61131d81611302565b811461132857600080fd5b50565b60008135905061133a81611314565b92915050565b600060208284031215611356576113556112d8565b5b60006113648482850161132b565b91505092915050565b60008115159050919050565b6113828161136d565b82525050565b600060408201905061139d6000830185611379565b6113aa6020830184611379565b9392505050565b60006020820190506113c66000830184611379565b92915050565b600080fd5b600080fd5b6000601f19601f8301169050919050565b7f4e487b7100000000000000000000000000000000000000000000000000000000600052604160045260246000fd5b61141f826113d6565b810181811067ffffffffffffffff8211171561143e5761143d6113e7565b5b80604052505050565b60006114516112ce565b905061145d8282611416565b919050565b600067ffffffffffffffff82111561147d5761147c6113e7565b5b611486826113d6565b9050602081019050919050565b82818337600083830152505050565b60006114b56114b084611462565b611447565b9050828152602081018484840111156114d1576114d06113d1565b5b6114dc848285611493565b509392505050565b600082601f8301126114f9576114f86113cc565b5b81356115098482602086016114a2565b91505092915050565b600060208284031215611528576115276112d8565b5b600082013567ffffffffffffffff811115611546576115456112dd565b5b611552848285016114e4565b91505092915050565b61156481611302565b82525050565b600060208201905061157f600083018461155b565b92915050565b600081519050919050565b600082825260208201905092915050565b60005b838110156115bf5780820151818401526020810190506115a4565b60008484015250505050565b60006115d682611585565b6115e08185611590565b93506115f08185602086016115a1565b6115f9816113d6565b840191505092915050565b6000819050919050565b61161781611604565b82525050565b6000608083016000830151848203600086015261163a82826115cb565b915050602083015161164f602086018261160e565b506040830151848203604086015261166782826115cb565b915050606083015161167c606086018261160e565b508091505092915050565b600060208201905081810360008301526116a1818461161d565b905092915050565b6116b281611604565b81146116bd57600080fd5b50565b6000813590506116cf816116a9565b92915050565b6000806000606084860312156116ee576116ed6112d8565b5b600084013567ffffffffffffffff81111561170c5761170b6112dd565b5b611718868287016114e4565b9350506020611729868287016116c0565b925050604084013567ffffffffffffffff81111561174a576117496112dd565b5b611756868287016114e4565b9150509250925092565b600060208284031215611776576117756112d8565b5b6000611784848285016116c0565b91505092915050565b600082825260208201905092915050565b60006117a982611585565b6117b3818561178d565b93506117c38185602086016115a1565b6117cc816113d6565b840191505092915050565b6117e081611604565b82525050565b60006080820190508181036000830152611800818761179e565b905061180f60208301866117d7565b8181036040830152611821818561179e565b905061183060608301846117d7565b95945050505050565b600060208201905061184e60008301846117d7565b92915050565b6000602082019050818103600083015261186e818461179e565b905092915050565b600081519050919050565b600082825260208201905092915050565b6000819050602082019050919050565b600060808301600083015184820360008601526118bf82826115cb565b91505060208301516118d4602086018261160e565b50604083015184820360408601526118ec82826115cb565b9150506060830151611901606086018261160e565b508091505092915050565b600061191883836118a2565b905092915050565b6000602082019050919050565b600061193882611876565b6119428185611881565b93508360208202850161195485611892565b8060005b858110156119905784840389528151611971858261190c565b945061197c83611920565b925060208a01995050600181019050611958565b50829750879550505050505092915050565b600060208201905081810360008301526119bc818461192d565b905092915050565b7f4f6e6c792061646d696e2063616e20737461727420766f74696e672121000000600082015250565b60006119fa601d8361178d565b9150611a05826119c4565b602082019050919050565b60006020820190508181036000830152611a29816119ed565b9050919050565b7f566f74696e672053746172746564212100000000000000000000000000000000600082015250565b6000611a6660108361178d565b9150611a7182611a30565b602082019050919050565b60006020820190508181036000830152611a9581611a59565b9050919050565b7f566f74696e67206e6f74207374617274656420796574206f7220656e6465642160008201527f2100000000000000000000000000000000000000000000000000000000000000602082015250565b6000611af860218361178d565b9150611b0382611a9c565b604082019050919050565b60006020820190508181036000830152611b2781611aeb565b9050919050565b7f4f776e65722063616e206e6f7420766f74652121000000000000000000000000600082015250565b6000611b6460148361178d565b9150611b6f82611b2e565b602082019050919050565b60006020820190508181036000830152611b9381611b57565b9050919050565b7f566f746572206e6f742072656769737465726564212100000000000000000000600082015250565b6000611bd060168361178d565b9150611bdb82611b9a565b602082019050919050565b60006020820190508181036000830152611bff81611bc3565b9050919050565b7f416c726561647920766f74656421210000000000000000000000000000000000600082015250565b6000611c3c600f8361178d565b9150611c4782611c06565b602082019050919050565b60006020820190508181036000830152611c6b81611c2f565b9050919050565b600081905092915050565b6000611c8882611585565b611c928185611c72565b9350611ca28185602086016115a1565b80840191505092915050565b6000611cba8284611c7d565b915081905092915050565b7f4e487b7100000000000000000000000000000000000000000000000000000000600052603260045260246000fd5b7f4e487b7100000000000000000000000000000000000000000000000000000000600052601160045260246000fd5b6000611d2e82611604565b91507fffffffffffffffffffffffffffffffffffffffffffffffffffffffffffffffff8203611d6057611d5f611cf4565b5b600182019050919050565b7f4e487b7100000000000000000000000000000000000000000000000000000000600052602260045260246000fd5b60006002820490506001821680611db257607f821691505b602082108103611dc557611dc4611d6b565b5b50919050565b60008190508160005260206000209050919050565b60006020601f8301049050919050565b600082821b905092915050565b600060088302611e2d7fffffffffffffffffffffffffffffffffffffffffffffffffffffffffffffffff82611df0565b611e378683611df0565b95508019841693508086168417925050509392505050565b6000819050919050565b6000611e74611e6f611e6a84611604565b611e4f565b611604565b9050919050565b6000819050919050565b611e8e83611e59565b611ea2611e9a82611e7b565b848454611dfd565b825550505050565b600090565b611eb7611eaa565b611ec2818484611e85565b505050565b5b81811015611ee657611edb600082611eaf565b600181019050611ec8565b5050565b601f821115611f2b57611efc81611dcb565b611f0584611de0565b81016020851015611f14578190505b611f28611f2085611de0565b830182611ec7565b50505b505050565b600082821c905092915050565b6000611f4e60001984600802611f30565b1980831691505092915050565b6000611f678383611f3d565b9150826002028217905092915050565b611f8082611585565b67ffffffffffffffff811115611f9957611f986113e7565b5b611fa38254611d9a565b611fae828285611eea565b600060209050601f831160018114611fe15760008415611fcf578287015190505b611fd98582611f5b565b865550612041565b601f198416611fef86611dcb565b60005b8281101561201757848901518255600182019150602085019450602081019050611ff2565b868310156120345784890151612030601f891682611f3d565b8355505b6001600288020188555050505b505050505050565b7f566f746564202121000000000000000000000000000000000000000000000000600082015250565b600061207f60088361178d565b915061208a82612049565b602082019050919050565b600060208201905081810360008301526120ae81612072565b9050919050565b7f4f6e6c79206f776e65722063616e206465636c6172652077696e6e6572212100600082015250565b60006120eb601f8361178d565b91506120f6826120b5565b602082019050919050565b6000602082019050818103600083015261211a816120de565b9050919050565b6000815461212e81611d9a565b6121388186611c72565b9450600182166000811461215357600181146121685761219b565b60ff198316865281151582028601935061219b565b61217185611dcb565b60005b8381101561219357815481890152600182019150602081019050612174565b838801955050505b50505092915050565b60006121b08284612121565b915081905092915050565b7f4f6e6c79206f776e65722063616e2072656769737465722043616e646964617460008201527f6521210000000000000000000000000000000000000000000000000000000000602082015250565b600061221760238361178d565b9150612222826121bb565b604082019050919050565b600060208201905081810360008301526122468161220a565b9050919050565b7f43616e64696461746520616c7265616479207265676973746572656400000000600082015250565b6000612283601c8361178d565b915061228e8261224d565b602082019050919050565b600060208201905081810360008301526122b281612276565b9050919050565b7f43616e6469646174652072656769737465726564212100000000000000000000600082015250565b60006122ef60168361178d565b91506122fa826122b9565b602082019050919050565b6000602082019050818103600083015261231e816122e2565b9050919050565b7f4f6e6c792061646d696e2063616e20617574686f726973652074686520766f7460008201527f6572212100000000000000000000000000000000000000000000000000000000602082015250565b600061238160248361178d565b915061238c82612325565b604082019050919050565b600060208201905081810360008301526123b081612374565b9050919050565b7f566f74657220616c726561647920617574686f72697365642121000000000000600082015250565b60006123ed601a8361178d565b91506123f8826123b7565b602082019050919050565b6000602082019050818103600083015261241c816123e0565b9050919050565b7f566f746572207265676973746572656421210000000000000000000000000000600082015250565b600061245960128361178d565b915061246482612423565b602082019050919050565b600060208201905081810360008301526124888161244c565b9050919050565b7f4f6e6c79206f776e65722063616e20737461727420766f74696e672121000000600082015250565b60006124c5601d8361178d565b91506124d08261248f565b602082019050919050565b600060208201905081810360008301526124f4816124b8565b9050919050565b7f566f74696e672073746f70656421210000000000000000000000000000000000600082015250565b6000612531600f8361178d565b915061253c826124fb565b602082019050919050565b6000602082019050818103600083015261256081612524565b905091905056fea2646970667358221220bb461b2389ac8f7c73e8e48da3a0f3382adc1987e983c8ca76fab68c21e9568f64736f6c63430008120033",
  "immutableReferences": {},
  "source": "//SPDX-License-Identifier: MIT\r\npragma solidity >=0.4.0 <0.9.0;\r\npragma experimental ABIEncoderV2;\r\ncontract Election {\r\n\r\n    address public owner;\r\n    string public winnerName;\r\n    // string public eventName;\r\n    uint public totalVote;\r\n    bool votingStarted;\r\n\r\n    struct Candidate{\r\n        string name;\r\n        uint age;\r\n        string party;\r\n        uint votes;\r\n        // address candidateAddress;\r\n    }\r\n\r\n    struct Voter{\r\n        bool registered;\r\n        bool voted;\r\n    }\r\n\r\n     event success(string msg);\r\n\r\n    // mapping(address=>uint) public candidates;\r\n     mapping(string=>uint) public candidates;\r\n    Candidate[] public candidateList;\r\n    mapping(address=>Voter) public voterList;\r\n\r\n    constructor(){\r\n        owner = msg.sender;\r\n        // eventName = _eventName;\r\n        totalVote = 0;\r\n        votingStarted=false;\r\n    }\r\n\r\n    function registerCandidates(string memory _name, uint _age, string memory _party) public {\r\n        require(msg.sender == owner, \"Only owner can register Candidate!!\");\r\n        // require(_candidateAddress != owner, \"Owner can not participate!!\");\r\n        require(candidates[_name] == 0, \"Candidate already registered\");\r\n        Candidate memory candidate = Candidate({\r\n            name: _name,\r\n            age: _age,\r\n            // registered: true,\r\n            votes: 0,\r\n            // candidateAddress: _candidateAddress\r\n            party :_party\r\n        });\r\n        if(candidateList.length == 0){ //not pushing any candidate on location zero;\r\n            candidateList.push();\r\n        }\r\n        candidates[_name] = candidateList.length;\r\n        candidateList.push(candidate);\r\n        emit success(\"Candidate registered!!\");\r\n    }\r\n\r\n    function whiteListAddress(address _voterAddress) public {\r\n        require(_voterAddress != owner, \"Owner can not vote!!\");\r\n        require(msg.sender == owner, \"Only admin can authorise the voter!!\");\r\n        require(voterList[_voterAddress].registered == false, \"Voter already authorised!!\");\r\n        Voter memory voter = Voter({\r\n            registered: true,\r\n            voted: false\r\n        });\r\n\r\n        voterList[_voterAddress] = voter;\r\n        emit success(\"Voter registered!!\");\r\n    }\r\n\r\n    function startVoting() public {\r\n        require(msg.sender == owner, \"Only admin can start voting!!\");\r\n        votingStarted = true;\r\n        emit success(\"Voting Started!!\");\r\n    }\r\n\r\n    function putVote(string memory _name) public {\r\n        require(votingStarted == true, \"Voting not started yet or ended!!\");\r\n        require(msg.sender != owner, \"Owner can not vote!!\");\r\n        require(voterList[msg.sender].registered == true, \"Voter not registered!!\");\r\n        require(voterList[msg.sender].voted == false, \"Already voted!!\");\r\n        // require(candidateList[candidates[_name]].registered == true, \"Candidate not registered\");\r\n\r\n        candidateList[candidates[_name]].votes++;\r\n        voterList[msg.sender].voted =true;\r\n\r\n        uint candidateVotes = candidateList[candidates[_name]].votes;\r\n\r\n        if(totalVote < candidateVotes){\r\n            totalVote = candidateVotes;\r\n            winnerName = _name;\r\n        }\r\n        emit success(\"Voted !!\");\r\n        \r\n    }\r\n\r\n    function stopVoting() public {\r\n        require(msg.sender == owner, \"Only owner can start voting!!\");\r\n        votingStarted = false;\r\n        emit success(\"Voting stoped!!\");\r\n    }\r\n\r\n    function getAllCandidate() public view returns(Candidate[] memory list){\r\n        return candidateList;\r\n    }\r\n\r\n    function votingStatus() public view returns(bool){\r\n        return votingStarted;\r\n    }\r\n\r\n    function getWinner() public view returns(Candidate memory candidate){\r\n        require(msg.sender == owner, \"Only owner can declare winner!!\");\r\n        return candidateList[candidates[winnerName]];\r\n    }\r\n}\r\n\r\n\r\n\r\n    // enum State {\r\n    //     NotStarted,\r\n    //     InProgress,\r\n    //     Ended\r\n    // }\r\n\r\n    // struct Candidate {\r\n    //     uint256 id;\r\n    //     string name;\r\n    //     uint256 voteCount;\r\n    // }\r\n\r\n    // address public owner;\r\n    // State public electionState;\r\n\r\n    // struct Voter {\r\n    //     uint256 id;\r\n    //     string name;\r\n    // }\r\n\r\n    // mapping(uint256 => Candidate) candidates;\r\n    // mapping(address => bool) voted;\r\n\r\n    // mapping(address => bool) isVoter;\r\n\r\n    // uint256 public candidatesCount = 0;\r\n\r\n    // uint256 public votersCount = 0;\r\n\r\n    // constructor() {\r\n    //     owner = msg.sender;\r\n       \r\n        \r\n    // }\r\n\r\n    // event Voted(uint256 indexed _candidateId);\r\n\r\n    // function startElection() public {\r\n    //     require(msg.sender == owner);\r\n    //     require(electionState == State.NotStarted);\r\n    //     electionState = State.InProgress;\r\n    // }\r\n\r\n    // function endElection() public {\r\n    //     require(msg.sender == owner);\r\n    //     require(electionState == State.InProgress);\r\n    //     electionState = State.Ended;\r\n    // }\r\n\r\n    // function addCandidate(string memory _name) public {\r\n    //     require(owner == msg.sender, \"Only owner can add candidates\");\r\n       \r\n\r\n    //     candidates[candidatesCount] = Candidate(candidatesCount, _name, 0);\r\n    //     candidatesCount++;\r\n    // }\r\n\r\n    // function addVoter(address _voter) public {\r\n    //     require(owner == msg.sender, \"Only owner can add voter\");\r\n        \r\n\r\n    //     isVoter[_voter] = true;\r\n    // }\r\n\r\n    // function getRole(address _current) public view returns (uint256) {\r\n    //     if (owner == _current) {\r\n    //         return 1;\r\n    //     } else if (isVoter[_current]) {\r\n    //         return 2;\r\n    //     } else {\r\n    //         return 3;\r\n    //     }\r\n    // }\r\n\r\n    // function vote(uint256 _candidateId) public {\r\n    //     require(\r\n    //         electionState == State.InProgress,\r\n    //         \"Election is not in progress\"\r\n    //     );\r\n    //     require(isVoter[msg.sender], \"Non authorised user cannot vote\");\r\n    //     require(!voted[msg.sender], \"You have already voted\");\r\n    //     require(\r\n    //         _candidateId >= 0 && _candidateId < candidatesCount,\r\n    //         \"Invalid candidate ID\"\r\n    //     );\r\n\r\n    //     candidates[_candidateId].voteCount++;\r\n    //     voted[msg.sender] = true;\r\n\r\n    //     emit Voted(_candidateId);\r\n    // }\r\n\r\n    // function getCandidateDetails(uint256 _candidateId)\r\n    //     public\r\n    //     view\r\n    //     returns (string memory, uint256)\r\n    // {\r\n    //     require(\r\n    //         _candidateId >= 0 && _candidateId < candidatesCount,\r\n    //         \"Invalid candidate ID\"\r\n    //     );\r\n    //     return (\r\n    //         candidates[_candidateId].name,\r\n    //         candidates[_candidateId].voteCount\r\n    //     );\r\n    // }\r\n",
  "sourcePath": "C:\\xampp\\htdocs\\demo\\Voting System\\contracts\\Election.sol",
  "compiler": {
    "name": "solc",
    "version": "0.8.18+commit.87f61d96.Emscripten.clang"
  },
  "schemaVersion": "3.4.11",
  "updatedAt": "2023-02-02T14:21:56.614Z",
  "networkType": "ethereum",
  "devdoc": {
    "kind": "dev",
    "methods": {},
    "version": 1
  },
  "userdoc": {
    "kind": "user",
    "methods": {},
    "version": 1
  }
}